:100000000C945E000C947B000C947B000C947B00A1
:100010000C947B000C947B000C947B000C947B0074
:100020000C947B000C947B000C947B000C947B0064
:100030000C947B000C947B000C9445040C947B0086
:100040000C947B000C947B000C947B000C947B0044
:100050000C947B000C947B000C947B000C947B0034
:100060000C947B000C947B00AA03D903E103E90301
:10007000F1030D04FF031B0424042D04001F0000E2
:1000800000001F00001F101010101F00001F181884
:1000900018181F00001F1C1C1C1C1F00001F1E1E08
:1000A0001E1E1F00001F1F1F1F1F1F0003070F1F03
:1000B0000F070300181C1E1F1E1C180011241FBE52
:1000C000CFEFD8E0DEBFCDBF11E0A0E0B1E0E6E6C3
:1000D000FFE002C005900D92AA34B107D9F721E0E4
:1000E000AAE4B1E001C01D92AE35B207E1F70E946B
:1000F0003D030C94B1070C9400001F93CF93DF9342
:1001000000D01F92CDB7DEB7DC0184B1867E84B902
:100110008AB18F778AB985B1896185B98BB18068D9
:100120008BB98AB18C638AB980E1898388E08A833C
:1001300081E08B8310E03BC08BB18C638BB98BB1BA
:10014000612F70E0AB014E5F5F4F21E030E002C0F5
:10015000220F331F4A95E2F7209528232BB990E010
:100160001AC083B1492F50E0E1E0F0E0EC0FFD1F31
:10017000E40FF51F2081282369F4440F551F440F15
:10018000551F40505F4FFA01E60FF71F80818C9397
:1001900081E010C09F5F933020F34F9907C0FB01AF
:1001A000E050FF4F84858C9381E004C01F5F1430C2
:1001B00018F280E00F900F900F90DF91CF911F9178
:1001C000089565B1982F9074492F50E05595479543
:1001D000559547955595479555954795982F9078FE
:1001E000292F30E0022E232F000C221F330B000C8E
:1001F000221F331F962F997F492B242B25B968B1D5
:10020000982F9071492F50E05595479555954795F2
:1002100055954795982F9072292F30E03595279561
:100220003595279535952795962F997F492B242B22
:1002300028B99BB192609BB99BB191609BB925EDA8
:100240002A95F1F700009BB19E7F9BB99BB19D7FE2
:100250009BB995ED9A95F1F7000065B120E1829F79
:10026000C0011124AC01407455275595479555950B
:10027000479555954795559547959C012078332787
:10028000022E232F000C221F330B000C221F331FC2
:10029000362F397F432B242B25B948B19C0120717F
:1002A0003327359527953595279535952795807270
:1002B0009927959587959595879595958795942FE9
:1002C000997F292B822B88B98BB182608BB98BB136
:1002D00081608BB985ED8A95F1F700008BB18E7F37
:1002E0008BB98BB18D7F8BB995ED9A95F1F70000A5
:1002F000089565B1982F9074492F50E05595479512
:10030000559547955595479555954795982F9078CC
:10031000292F30E0022E232F000C221F330B000C5C
:10032000221F331F962F997F492B242B25B968B1A3
:10033000982F9071492F50E05595479555954795C1
:1003400055954795982F9072292F30E03595279530
:100350003595279535952795962F997F492B242BF1
:1003600028B99BB191609BB9EFE9FFE03197F1F7B4
:1003700000C000009BB19E7F9BB9EFE9FFE0319781
:10038000F1F700C0000065B1F0E18F9FC0011124BA
:10039000AC0140745527559547955595479555950A
:1003A0004795559547959C0120783327022E232F9A
:1003B000000C221F330B000C221F331F362F397FF6
:1003C000432B242B25B948B19C0120713327359547
:1003D0002795359527953595279580729927959579
:1003E00087959595879595958795942F997F292B36
:1003F000822B88B98BB181608BB98FE99FE001971F
:10040000F1F700C000008BB18E7F8BB9EFE9FFE000
:100410003197F1F700C0000008950F931F93CF9319
:10042000DF93009769F0D62F8C01C0E007C0F80178
:10043000EC0FF11D80810E94E100CF5FCD17B8F372
:10044000DF91CF911F910F910895623031F06330A9
:1004500031F0613029F4805C03C08C5E01C08C5A9D
:1004600080680E9479010895EF92FF920F931F9385
:10047000CF93DF937C01862F90E0880F991F880F20
:10048000991F880F991F8064C0E0D0E00DC0F7016C
:10049000EC0FFD1F149101E0080F0E947901812FDC
:1004A0000E94E1002196802FC830D10580F3DF91B2
:1004B000CF911F910F91FF90EF900895CF93DF930D
:1004C0008FE59AEE0197F1F700C0000085B1897FB2
:1004D00085B988B1897F88B91BB887B1866087B92B
:1004E00084B1866084B984B1866084B987B186603E
:1004F00087B98AB183608AB985B1897F85B988B1A6
:10050000866088B98BB181608BB98FE99FE00197D4
:10051000F1F700C000008BB18E7F8BB98FE99FE0AF
:100520000197F1F700C0000085B1897F85B988B1D6
:10053000866088B98BB181608BB98FE99FE00197A4
:10054000F1F700C000008BB18E7F8BB98FE99FE07F
:100550000197F1F700C0000085B1897F85B988B1A6
:10056000897F846088B98BB181608BB98FE99FE006
:100570000197F1F700C000008BB18E7F8BB98FE936
:100580009FE00197F1F700C0000088E20E94790126
:100590008CE00E94790160E0C0E00AC0D1E0D60F93
:1005A0008C2F90E084589F4F0E943402C85F6D2FBB
:1005B000C034A0F3DF91CF910895EF92FF920F9393
:1005C0001F93CF93DF9300D000D01F92CDB7DEB73B
:1005D0007B01FE01319625E0DF011D922A95E9F7A6
:1005E00024E030E00FC06AE070E00E949C04E1E08B
:1005F000F0E0EC0FFD1FE20FF31F8083862F972F93
:1006000021503109009779F7BFEFEB16FB0681F413
:1006100003C00F5F1F4F02C000E010E0E1E0F0E018
:10062000EC0FFD1FE00FF11F2081222391F304C086
:1006300005E010E00E191F09992384F48DE20E9451
:10064000E1000CC0E1E0F0E0EC0FFD1FE00FF11F56
:100650008081805D0E94E1000F5F1F4F0530110512
:100660008CF30F900F900F900F900F90DF91CF9120
:100670001F910F91FF90EF9008950E945E020E94DB
:1006800092030E9436040E946904FDCF90914B01B1
:10069000981304C010924B0160934C010895FC0123
:1006A0008081813449F018F48A30C0F00895823492
:1006B00049F0833469F0089587E080934C011092EB
:1006C0004B01089588E080934C0110924B010895EE
:1006D00089E080934C0110924B01089581E0809352
:1006E0004C0110924B010895CF93C82F8AE491E0FA
:1006F0000E947D00811109C0EC2FF0E0EC5AFE4F02
:1007000080914A01808381E001C080E0CF9108950B
:1007100060E171E00E94CA04892B11F481E0089520
:1007200080E0089585E080934C0110924B0108957C
:1007300080914B018F5F80934B01E0914C018E2F94
:1007400090E08A30910508F090C0FC01EC5CFF4F0E
:100750000C94B00460E085E00E94250280914B017A
:1007600062E070E090E00E94DD028AE30E94E10016
:100770000E94960462E070E00E94DD028AE30E941B
:10078000E1000E94990462E070E00E94DD0261E0F5
:1007900085E00E94250267E085E191E00E940D025C
:1007A00080E00E9474038091540190E00E944F0306
:1007B000089581E00E94740360E08EE10E94460388
:1007C000089582E00E94740360E08EE10E94460377
:1007D000089583E00E94740360E08EE10E94460366
:1007E000089584E591E00E948803882321F085E044
:1007F00080934C01089586E080934C01089561E058
:1008000085E00E94250268E08DE191E00E940D02E2
:1008100060E084E10E944603089561E085E00E9463
:10082000250267E086E291E00E940D0260E08EE121
:100830000E94460308958EE291E09F938F930E9459
:10084000D3040F900F90089587E391E09F938F93C7
:100850000E94D3040F900F90089580E491E09F933D
:100860008F930E94D3040F900F9008958AB18064F3
:100870008AB989EF87BD82E484BD85B5856085BD71
:1008800082E080936E00789408951F920F920FB6C5
:100890000F9211248F9380914E018F5F80934E01B0
:1008A000893129F481E080934F0110924E018091AB
:1008B0004D018F5F80934D018A3F29F481E0809341
:1008C000500110924D018F910F900FBE0F901F900D
:1008D000189580915001882321F00E947A0410928B
:1008E000500180914F01882321F00E9498031092BB
:1008F0004F010895809153018F5F809353018C3392
:10090000A0F010925301809152018F5F80935201A9
:100910008C3358F010925201809151018F5F809377
:100920005101883110F010925101089580915201C7
:10093000089580915101089597FB072E16F40094B5
:1009400007D077FD09D00E94B60407FC05D03EF41D
:10095000909581959F4F0895709561957F4F08956B
:10096000EE0FFF1F0590F491E02D0994AA1BBB1B0D
:1009700051E107C0AA1FBB1FA617B70710F0A61B9F
:10098000B70B881F991F5A95A9F780959095BC01C0
:10099000CD010895FB01DC018D91019080190110BA
:1009A000D9F3990B0895A0E0B0E0E9EDF4E00C94E0
:1009B0008A07AE014B5F5F4FFA0161917191AF0100
:1009C00080915A0190915B010E94E904E2E00C944D
:1009D000A607ABE0B0E0EFEEF4E00C947A076C0110
:1009E0007B018A01FC0117821682838181FFCCC1C1
:1009F000CE0101963C01F6019381F70193FD8591AB
:100A000093FF81917F01882309F4BAC1853239F4BB
:100A100093FD859193FF81917F01853229F4B60181
:100A200090E00E94E006E7CF912C212C312CFFE1D1
:100A3000F315D8F08B3279F038F4803279F08332C4
:100A4000A1F4232D20611DC08D3261F0803369F443
:100A5000232D216016C0832D8260382EE32DE460A3
:100A60003E2E2AC0F32DF8601DC037FC2DC020EDAE
:100A7000280F2A3040F08E32B9F436FC81C1232D84
:100A80002064322E19C036FE06C08AE0989E200DE2
:100A90001124922E11C0EAE02E9E200D1124222E48
:100AA000F32DF0623F2E08C08C3621F4832D806830
:100AB000382E02C0883641F4F70193FD859193FFEB
:100AC00081917F018111B3CF982F9F7D95549330F1
:100AD00028F40C5F1F4F9FE399830DC0833631F0DC
:100AE000833771F0833509F059C021C0F801808146
:100AF00089830E5F1F4F88248394912C530113C068
:100B00002801F2E04F0E511CF801A080B18036FEA2
:100B100003C0692D70E002C06FEF7FEFC5010E9436
:100B2000D5064C018201F32DFF773F2E16C0280118
:100B300022E0420E511CF801A080B18036FE03C0B5
:100B4000692D70E002C06FEF7FEFC5010E94CA06F9
:100B50004C01F32DF0683F2E820133FC1BC0822D27
:100B600090E088169906B0F4B60180E290E00E9409
:100B7000E0062A94F4CFF50137FC859137FE819188
:100B80005F01B60190E00E94E00621102A9421E066
:100B9000821A91088114910471F7E8C0843611F02B
:100BA000893641F5F80137FE07C060817181828185
:100BB00093810C5F1F4F08C060817181072E000C6C
:100BC000880B990B0E5F1F4FF32DFF763F2E97FF7B
:100BD00009C090958095709561957F4F8F4F9F4F7D
:100BE000F0683F2E2AE030E0A3010E941C07882E07
:100BF000861845C0853731F4232D2F7EB22E2AE08A
:100C000030E025C0932D997FB92E8F36C1F018F4AE
:100C1000883579F0B5C0803719F0883721F0B0C039
:100C2000E92FE061BE2EB4FE0DC0FB2DF460BF2E97
:100C300009C034FE0AC0292F2660B22E06C028E063
:100C400030E005C020E130E002C020E132E0F801F0
:100C5000B7FE07C060817181828193810C5F1F4F55
:100C600006C06081718180E090E00E5F1F4FA3019C
:100C70000E941C07882E8618FB2DFF773F2E36FE1C
:100C80000DC0232D2E7FA22E891458F434FE0BC0E4
:100C900032FC09C0832D8E7EA82E05C0B82CA32C53
:100CA00003C0B82C01C0B92CA4FE0FC0FE01E80D92
:100CB000F11D8081803321F49A2D997EA92E09C0DF
:100CC000A2FE06C0B394B39404C08A2D867809F0BE
:100CD000B394A3FC11C0A0FE06C0B21488F4280C83
:100CE000922C9B180EC0B21460F4B60180E290E022
:100CF0000E94E006B394F7CFB21418F42B1802C088
:100D0000982C212CA4FE10C0B60180E390E00E9434
:100D1000E006A2FE17C0A1FC03C088E790E002C075
:100D200088E590E0B6010CC08A2D867859F0A1FEC6
:100D300002C08BE201C080E2A7FC8DE2B60190E028
:100D40000E94E006891438F4B60180E390E00E9426
:100D5000E0069A94F7CF8A94F301E80DF11D8081A3
:100D6000B60190E00E94E0068110F5CF222009F440
:100D700042CEB60180E290E00E94E0062A94F6CFCF
:100D8000F6018681978102C08FEF9FEF2B96E2E1FB
:100D90000C949607FC010590615070400110D8F743
:100DA000809590958E0F9F1F0895FC0161507040B3
:100DB00001900110D8F7809590958E0F9F1F089590
:100DC0000F931F93CF93DF93FB01238121FD03C07A
:100DD0008FEF9FEF2CC022FF16C0468157812481E0
:100DE00035814217530744F4A081B1819D012F5FE3
:100DF0003F4F318320838C93268137812F5F3F4F74
:100E00003783268314C08B01EC01FB010084F1853C
:100E1000E02D0995892BE1F6D80116968D919C91CC
:100E20001797019617969C938E931697CE01DF9194
:100E3000CF911F910F910895FA01AA27283051F1FF
:100E4000203181F1E8946F936E7F6E5F7F4F8F4FFB
:100E50009F4FAF4FB1E03ED0B4E03CD0670F781F5A
:100E6000891F9A1FA11D680F791F8A1F911DA11D3F
:100E70006A0F711D811D911DA11D20D009F4689478
:100E80003F912AE0269F11243019305D3193DEF620
:100E9000CF010895462F4770405D4193B3E00FD0D6
:100EA000C9F7F6CF462F4F70405D4A3318F0495DC1
:100EB00031FD4052419302D0A9F7EACFB4E0A695A4
:100EC0009795879577956795BA95C9F700976105C6
:100ED000710508959B01AC010A2E0694579547951C
:100EE00037952795BA95C9F7620F731F841F951F11
:100EF000A01D08952F923F924F925F926F927F9222
:100F00008F929F92AF92BF92CF92DF92EF92FF9219
:100F10000F931F93CF93DF93CDB7DEB7CA1BDB0BC5
:100F20000FB6F894DEBF0FBECDBF09942A8839886A
:100F300048885F846E847D848C849B84AA84B98471
:100F4000C884DF80EE80FD800C811B81AA81B9817D
:100F5000CE0FD11D0FB6F894DEBF0FBECDBFED0191
:060F60000895F894FFCF94
:100F66004131333242343635433739384430232A17
:100F760035393133004345525241444F0044454EC2
:100F8600454741444F004142494552544F0045644C
:100F96006963696F6E480045646963696F6E4D00E9
:0A0FA60045646963696F6E53000033
:00000001FF
