:100000000C945E000C947B000C947B000C947B00A1
:100010000C947B000C947B000C947B000C947B0074
:100020000C947B000C947B000C947B000C947B0064
:100030000C947B000C947B000C94E5040C947B00E6
:100040000C947B000C947B000C947B000C947B0044
:100050000C947B000C947B000C947B000C947B0034
:100060000C947B000C947B00BD03F1031304330458
:1000700052047A046C048804C404CD04001F0000F8
:1000800000001F00001F101010101F00001F181884
:1000900018181F00001F1C1C1C1C1F00001F1E1E08
:1000A0001E1E1F00001F1F1F1F1F1F0003070F1F03
:1000B0000F070300181C1E1F1E1C180011241FBE52
:1000C000CFEFD8E0DEBFCDBF11E0A0E0B1E0E0EAC5
:1000D000F0E102C005900D92AC33B107D9F721E0F1
:1000E000ACE3B1E001C01D92A435B207E1F70E9474
:1000F00041030C944E080C9400001F93CF93DF93A0
:1001000000D01F92CDB7DEB7DC0184B1867E84B902
:100110008AB18F778AB985B1896185B98BB18068D9
:100120008BB98AB18C638AB980E1898388E08A833C
:1001300081E08B8310E03BC08BB18C638BB98BB1BA
:10014000612F70E0AB014E5F5F4F21E030E002C0F5
:10015000220F331F4A95E2F7209528232BB990E010
:100160001AC083B1492F50E0E1E0F0E0EC0FFD1F31
:10017000E40FF51F2081282369F4440F551F440F15
:10018000551F40505F4FFA01E60FF71F80818C9397
:1001900081E010C09F5F933020F34F9907C0FB01AF
:1001A000E050FF4F84858C9381E004C01F5F1430C2
:1001B00018F280E00F900F900F90DF91CF911F9178
:1001C000089565B1982F9074492F50E05595479543
:1001D000559547955595479555954795982F9078FE
:1001E000292F30E0022E232F000C221F330B000C8E
:1001F000221F331F962F997F492B242B25B968B1D5
:10020000982F9071492F50E05595479555954795F2
:1002100055954795982F9072292F30E03595279561
:100220003595279535952795962F997F492B242B22
:1002300028B99BB192609BB99BB191609BB925EDA8
:100240002A95F1F700009BB19E7F9BB99BB19D7FE2
:100250009BB995ED9A95F1F7000065B120E1829F79
:10026000C0011124AC01407455275595479555950B
:10027000479555954795559547959C012078332787
:10028000022E232F000C221F330B000C221F331FC2
:10029000362F397F432B242B25B948B19C0120717F
:1002A0003327359527953595279535952795807270
:1002B0009927959587959595879595958795942FE9
:1002C000997F292B822B88B98BB182608BB98BB136
:1002D00081608BB985ED8A95F1F700008BB18E7F37
:1002E0008BB98BB18D7F8BB995ED9A95F1F70000A5
:1002F000089565B1982F9074492F50E05595479512
:10030000559547955595479555954795982F9078CC
:10031000292F30E0022E232F000C221F330B000C5C
:10032000221F331F962F997F492B242B25B968B1A3
:10033000982F9071492F50E05595479555954795C1
:1003400055954795982F9072292F30E03595279530
:100350003595279535952795962F997F492B242BF1
:1003600028B99BB191609BB9EFE9FFE03197F1F7B4
:1003700000C000009BB19E7F9BB9EFE9FFE0319781
:10038000F1F700C0000065B1F0E18F9FC0011124BA
:10039000AC0140745527559547955595479555950A
:1003A0004795559547959C0120783327022E232F9A
:1003B000000C221F330B000C221F331F362F397FF6
:1003C000432B242B25B948B19C0120713327359547
:1003D0002795359527953595279580729927959579
:1003E00087959595879595958795942F997F292B36
:1003F000822B88B98BB181608BB98FE99FE001971F
:10040000F1F700C000008BB18E7F8BB9EFE9FFE000
:100410003197F1F700C00000089581E00E94790152
:1004200008950F931F93CF93DF93009769F0D62F12
:100430008C01C0E007C0F801EC0FF11D80810E9423
:10044000E100CF5FCD17B8F3DF91CF911F910F91EE
:100450000895623031F0633031F0613029F4805C0E
:1004600003C08C5E01C08C5A80680E947901089597
:10047000EF92FF920F931F93CF93DF937C01862F10
:1004800090E0880F991F880F991F880F991F80642B
:10049000C0E0D0E00DC0F701EC0FFD1F149101E0AA
:1004A000080F0E947901812F0E94E1002196802F80
:1004B000C830D10580F3DF91CF911F910F91FF904C
:1004C000EF900895CF93DF938FE59AEE0197F1F7C0
:1004D00000C0000085B1897F85B988B1897F88B95E
:1004E0001BB887B1866087B984B1866084B984B14E
:1004F000866084B987B1866087B98AB183608AB91A
:1005000085B1897F85B988B1866088B98BB18160F2
:100510008BB98FE99FE00197F1F700C000008BB124
:100520008E7F8BB98FE99FE00197F1F700C0000043
:1005300085B1897F85B988B1866088B98BB18160C2
:100540008BB98FE99FE00197F1F700C000008BB1F4
:100550008E7F8BB98FE99FE00197F1F700C0000013
:1005600085B1897F85B988B1897F846088B98BB16D
:1005700081608BB98FE99FE00197F1F700C000001F
:100580008BB18E7F8BB98FE99FE00197F1F700C0A7
:10059000000088E20E9479018CE00E94790160E00D
:1005A000C0E00AC0D1E0D60F8C2F90E084589F4F56
:1005B0000E943802C85F6D2FC034A0F3DF91CF9145
:1005C0000895EF92FF920F931F93CF93DF9300D084
:1005D00000D01F92CDB7DEB77B01FE01319625E03A
:1005E000DF011D922A95E9F724E030E00FC06AE0B0
:1005F00070E00E944205E1E0F0E0EC0FFD1FE20F29
:10060000F31F8083862F972F21503109009779F7A8
:10061000BFEFEB16FB0681F403C00F5F1F4F02C054
:1006200000E010E0E1E0F0E0EC0FFD1FE00FF11F53
:100630002081222391F304C005E010E00E191F0968
:10064000992384F48DE20E94E1000CC0E1E0F0E027
:10065000EC0FFD1FE00FF11F8081805D0E94E10023
:100660000F5F1F4F053011058CF30F900F900F9007
:100670000F900F90DF91CF911F910F91FF90EF900E
:1006800008950E9462020E94A6030E94D6040E945E
:100690000905FDCFFC012081253359F4218129333F
:1006A00051F42281213349F48381833341F080E086
:1006B000089580E0089580E0089580E0089581E045
:1006C0000895FC018081813449F018F48A30C0F02B
:1006D0000895823449F0833469F0089587E0809367
:1006E000460110924501089588E0809346011092DA
:1006F0004501089589E080934601109245010895CF
:1007000081E080934601109245010895CF93909126
:100710004501981307C0C62F0E940D021092450193
:10072000C0934601CF910895CF93C82F83E491E001
:100730000E947D00882341F0EC2FF0E0E15CFE4F49
:1007400080914301808381E0CF910895109246010A
:10075000109245010895809145018F5F8093450176
:10076000E09146018E2F90E08A30910508F01DC17E
:10077000FC01EC5CFF4F0C94560560E084E00E94A5
:1007800029020E943C0562E070E090E00E94E102D4
:100790008AE30E94E1000E94390562E070E090E087
:1007A0000E94E1028AE30E94E1000E94360562E0B5
:1007B00070E090E00E94E10261E085E00E94290281
:1007C00067E080E191E00E94110280E00E949403C2
:1007D000882309F4EAC080913F0190E00E94610300
:1007E00008950E940D0261E085E00E942902809137
:1007F0003F010E94E100809144018F5F809344019A
:10080000833061F481E00E949403882329F01092E0
:10081000450182E0809346011092440160E08EE140
:100820000E948603089561E086E00E94290280917B
:1008300040010E94E100809144018F5F8093440158
:10084000833061F482E00E949403882329F010929F
:10085000450183E0809346011092440160E08EE1FF
:100860000E948603089561E087E00E94290280913A
:1008700041010E94E100809144018F5F8093440117
:10088000833059F40E949403882329F01092450183
:1008900084E0809346011092440160E08EE10E9462
:1008A0008603089561E088E00E9429028091420158
:1008B0000E94E1008FE391E00E944A03882331F017
:1008C0001092450185E080934601089510924501FC
:1008D00086E080934601089561E085E00E94290248
:1008E00068E088E191E00E94110260E084E10E94EA
:1008F0008603089561E085E00E94290267E081E2B5
:1009000091E00E94110260E08EE10E94860308954A
:1009100083E491E00E947D00882309F446C0809121
:1009200043018332D1F08134E9F4EDE3F1E09081C9
:100930002181990F892F880F880F980F920F80912E
:100940003C01833029F4983118F4892F0E943F0527
:1009500010923C011092460111C010924601109273
:100960003C010CC090ED980F9A3040F4E0913C01AE
:10097000E23020F4F0E0E35CFE4F808380913C01A4
:100980008F5F80933C01089589E291E09F938F935C
:100990000E9470050F900F90089582E391E09F935D
:1009A0008F930E9470050F900F9008958AB1806414
:1009B0008AB989EF87BD82E484BD85B5846085BD31
:1009C00082E080936E00789408951F920F920FB684
:1009D0000F9211248F93809148018F5F809348017B
:1009E000893129F481E08093490110924801809176
:1009F00047018F5F809347018A3F29F481E080930C
:100A00004A01109247018F910F900FBE0F901F90D7
:100A1000189580914A01882321F00E941A051092AE
:100A20004A0180914901882321F00E94AB03109272
:100A30004901089580914D018F5F80934D018C3362
:100A4000A0F010924D0180914C018F5F80934C017A
:100A50008C3358F010924C0180914B018F5F809342
:100A60004B01883110F010924B01089580914D0197
:100A7000089580914C01089580914B0108958093D1
:100A80004B01089597FB072E16F4009407D077FDCD
:100A900009D00E945C0507FC05D03EF49095819535
:100AA0009F4F0895709561957F4F0895EE0FFF1F3A
:100AB0000590F491E02D0994AA1BBB1B51E107C0DE
:100AC000AA1FBB1FA617B70710F0A61BB70B881FDE
:100AD000991F5A95A9F780959095BC01CD0108956D
:100AE000A0E0B0E0E6E7F5E00C942708AE014B5F2C
:100AF0005F4FFA0161917191AF0180915001909126
:100B000051010E948605E2E00C944308ABE0B0E09E
:100B1000ECE8F5E00C9417086C017B018A01FC01FC
:100B200017821682838181FFCCC1CE0101963C01E0
:100B3000F6019381F70193FD859193FF81917F01E8
:100B4000882309F4BAC1853239F493FD859193FF66
:100B500081917F01853229F4B60190E00E947D07E2
:100B6000E7CF912C212C312CFFE1F315D8F08B32FB
:100B700079F038F4803279F08332A1F4232D2061AA
:100B80001DC08D3261F0803369F4232D216016C0C1
:100B9000832D8260382EE32DE4603E2E2AC0F32D93
:100BA000F8601DC037FC2DC020ED280F2A3040F022
:100BB0008E32B9F436FC81C1232D2064322E19C047
:100BC00036FE06C08AE0989E200D1124922E11C098
:100BD000EAE02E9E200D1124222EF32DF0623F2EEE
:100BE00008C08C3621F4832D8068382E02C08836E8
:100BF00041F4F70193FD859193FF81917F0181116C
:100C0000B3CF982F9F7D9554933028F40C5F1F4FDE
:100C10009FE399830DC0833631F0833771F08335BC
:100C200009F059C021C0F801808189830E5F1F4FF0
:100C300088248394912C530113C02801F2E04F0EB5
:100C4000511CF801A080B18036FE03C0692D70E010
:100C500002C06FEF7FEFC5010E9472074C01820155
:100C6000F32DFF773F2E16C0280122E0420E511CC3
:100C7000F801A080B18036FE03C0692D70E002C08B
:100C80006FEF7FEFC5010E9467074C01F32DF068FD
:100C90003F2E820133FC1BC0822D90E088169906FE
:100CA000B0F4B60180E290E00E947D072A94F4CF70
:100CB000F50137FC859137FE81915F01B60190E027
:100CC0000E947D0721102A9421E0821A9108811444
:100CD000910471F7E8C0843611F0893641F5F801C6
:100CE00037FE07C060817181828193810C5F1F4F45
:100CF00008C060817181072E000C880B990B0E5F74
:100D00001F4FF32DFF763F2E97FF09C090958095DA
:100D1000709561957F4F8F4F9F4FF0683F2E2AE06F
:100D200030E0A3010E94B907882E861845C0853798
:100D300031F4232D2F7EB22E2AE030E025C0932DF2
:100D4000997FB92E8F36C1F018F4883579F0B5C087
:100D5000803719F0883721F0B0C0E92FE061BE2E4E
:100D6000B4FE0DC0FB2DF460BF2E09C034FE0AC0D6
:100D7000292F2660B22E06C028E030E005C020E111
:100D800030E002C020E132E0F801B7FE07C0608128
:100D90007181828193810C5F1F4F06C060817181D8
:100DA00080E090E00E5F1F4FA3010E94B907882EDC
:100DB0008618FB2DFF773F2E36FE0DC0232D2E7F8C
:100DC000A22E891458F434FE0BC032FC09C0832DC6
:100DD0008E7EA82E05C0B82CA32C03C0B82C01C051
:100DE000B92CA4FE0FC0FE01E80DF11D80818033F7
:100DF00021F49A2D997EA92E09C0A2FE06C0B394B3
:100E0000B39404C08A2D867809F0B394A3FC11C072
:100E1000A0FE06C0B21488F4280C922C9B180EC0B9
:100E2000B21460F4B60180E290E00E947D07B394B2
:100E3000F7CFB21418F42B1802C0982C212CA4FE62
:100E400010C0B60180E390E00E947D07A2FE17C0AB
:100E5000A1FC03C088E790E002C088E590E0B601FD
:100E60000CC08A2D867859F0A1FE02C08BE201C029
:100E700080E2A7FC8DE2B60190E00E947D07891414
:100E800038F4B60180E390E00E947D079A94F7CF92
:100E90008A94F301E80DF11D8081B60190E00E9473
:100EA0007D078110F5CF222009F442CEB60180E201
:100EB00090E00E947D072A94F6CFF6018681978103
:100EC00002C08FEF9FEF2B96E2E10C943308FC01F8
:100ED0000590615070400110D8F7809590958E0F65
:100EE0009F1F0895FC016150704001900110D8F7D8
:100EF000809590958E0F9F1F08950F931F93CF930A
:100F0000DF93FB01238121FD03C08FEF9FEF2CC0F6
:100F100022FF16C04681578124813581421753072D
:100F200044F4A081B1819D012F5F3F4F3183208325
:100F30008C93268137812F5F3F4F3783268314C0E0
:100F40008B01EC01FB010084F185E02D0995892BD3
:100F5000E1F6D80116968D919C91179701961796F8
:100F60009C938E931697CE01DF91CF911F910F9195
:100F70000895FA01AA27283051F1203181F1E8942F
:100F80006F936E7F6E5F7F4F8F4F9F4FAF4FB1E07C
:100F90003ED0B4E03CD0670F781F891F9A1FA11D77
:100FA000680F791F8A1F911DA11D6A0F711D811D78
:100FB000911DA11D20D009F468943F912AE0269F3D
:100FC00011243019305D3193DEF6CF010895462F9C
:100FD0004770405D4193B3E00FD0C9F7F6CF462F7D
:100FE0004F70405D4A3318F0495D31FD40524193E6
:100FF00002D0A9F7EACFB4E0A695979587957795A3
:101000006795BA95C9F700976105710508959B0129
:10101000AC010A2E06945795479537952795BA95B2
:10102000C9F7620F731F841F951FA01D08952F928B
:101030003F924F925F926F927F928F929F92AF9268
:10104000BF92CF92DF92EF92FF920F931F93CF93B5
:10105000DF93CDB7DEB7CA1BDB0B0FB6F894DEBF4C
:101060000FBECDBF09942A88398848885F846E8472
:101070007D848C849B84AA84B984C884DF80EE80BC
:10108000FD800C811B81AA81B981CE0FD11D0FB6C5
:10109000F894DEBF0FBECDBFED010895F894FFCFE9
:1010A0004131333242343635433739384430232ADC
:1010B0004345525241444F0044454E454741444FF9
:1010C000004142494552544F0045646963696F6E5F
:0C10D0004D0045646963696F6E530000B9
:00000001FF
