:100000000C945C000C9479000C9479000C947900A9
:100010000C9479000C9479000C9479000C9479007C
:100020000C9479000C9479000C9479000C9479006C
:100030000C9479000C9479000C94DD040C947900F4
:100040000C9479000C9479000C9479000C9479004C
:100050000C9479000C9479000C9479000C9479003C
:100060000C9479000C947900C103F503170437044C
:1000700056047E0470048C04001F000000001F0062
:10008000001F101010101F00001F181818181F0054
:10009000001F1C1C1C1C1F00001F1E1E1E1E1F00FC
:1000A000001F1F1F1F1F1F0003070F1F0F07030045
:1000B000181C1E1F1E1C180011241FBECFEFD8E0F5
:1000C000DEBFCDBF11E0A0E0B1E0E4EDFAE002C098
:1000D00005900D92AA32B107D9F721E0AAE2B1E06A
:1000E00001C01D92AC33B207E1F70E943F030C94AC
:1000F00068050C9400001F93CF93DF9300D01F92EC
:10010000CDB7DEB7DC0184B1867E84B98AB18F7742
:100110008AB985B1896185B98BB180688BB98AB19B
:100120008C638AB980E1898388E08A8381E08B834C
:1001300010E03BC08BB18C638BB98BB1612F70E049
:10014000AB014E5F5F4F21E030E002C0220F331F52
:100150004A95E2F7209528232BB990E01AC083B185
:10016000492F50E0E1E0F0E0EC0FFD1FE40FF51F38
:100170002081282369F4440F551F440F551F405018
:100180005F4FFA01E60FF71F80818C9381E010C06A
:100190009F5F933020F34F9907C0FB01E050FF4F62
:1001A00084858C9381E004C01F5F143018F280E0D6
:1001B0000F900F900F90DF91CF911F91089565B12F
:1001C000982F9074492F50E0559547955595479530
:1001D0005595479555954795982F9078292F30E05C
:1001E000022E232F000C221F330B000C221F331F63
:1001F000962F997F492B242B25B968B1982F9071A0
:10020000492F50E0559547955595479555954795F4
:10021000982F9072292F30E03595279535952795A1
:1002200035952795962F997F492B242B28B99BB17B
:1002300092609BB99BB191609BB925ED2A95F1F72E
:1002400000009BB19E7F9BB99BB19D7F9BB995EDB3
:100250009A95F1F7000065B120E1829FC001112459
:10026000AC0140745527559547955595479555953B
:100270004795559547959C0120783327022E232FCB
:10028000000C221F330B000C221F331F362F397F27
:10029000432B242B25B948B19C0120713327359578
:1002A00027953595279535952795807299279595AA
:1002B00087959595879595958795942F997F292B67
:1002C000822B88B98BB182608BB98BB181608BB97D
:1002D00085ED8A95F1F700008BB18E7F8BB98BB1DC
:1002E0008D7F8BB995ED9A95F1F70000089565B172
:1002F000982F9074492F50E05595479555954795FF
:100300005595479555954795982F9078292F30E02A
:10031000022E232F000C221F330B000C221F331F31
:10032000962F997F492B242B25B968B1982F90716E
:10033000492F50E0559547955595479555954795C3
:10034000982F9072292F30E0359527953595279570
:1003500035952795962F997F492B242B28B99BB14A
:1003600091609BB9EFE9FFE03197F1F700C0000021
:100370009BB19E7F9BB9EFE9FFE03197F1F700C099
:10038000000065B1F0E18F9FC0011124AC01407401
:1003900055275595479555954795559547955595A5
:1003A00047959C0120783327022E232F000C221F13
:1003B000330B000C221F331F362F397F432B242B86
:1003C00025B948B19C01207133273595279535957E
:1003D00027953595279580729927959587959595B9
:1003E000879595958795942F997F292B822B88B98E
:1003F0008BB181608BB98FE99FE00197F1F700C065
:1004000000008BB18E7F8BB9EFE9FFE03197F1F7F8
:1004100000C00000089581E00E94770108950F93C5
:100420001F93CF93DF93009769F0D62F8C01C0E024
:1004300007C0F801EC0FF11D80810E94DF00CF5F43
:10044000CD17B8F3DF91CF911F910F9108956230CE
:1004500031F0633031F0613029F4805C03C08C5E90
:1004600001C08C5A80680E9477010895EF92FF9234
:100470000F931F93CF93DF937C01862F90E0880F1B
:10048000991F880F991F880F991F8064C0E0D0E0E2
:100490000DC0F701EC0FFD1F149101E0080F0E9441
:1004A0007701812F0E94DF002196802FC830D1056F
:1004B00080F3DF91CF911F910F91FF90EF900895FE
:1004C000CF93DF938FE59AEE0197F1F700C000001C
:1004D00085B1897F85B988B1897F88B91BB887B113
:1004E000866087B984B1866084B984B1866084B936
:1004F00087B1866087B98AB183608AB985B1897FFF
:1005000085B988B1866088B98BB181608BB98FE974
:100510009FE00197F1F700C000008BB18E7F8BB98F
:100520008FE99FE00197F1F700C0000085B1897F56
:1005300085B988B1866088B98BB181608BB98FE944
:100540009FE00197F1F700C000008BB18E7F8BB95F
:100550008FE99FE00197F1F700C0000085B1897F26
:1005600085B988B1897F846088B98BB181608BB986
:100570008FE99FE00197F1F700C000008BB18E7FFB
:100580008BB98FE99FE00197F1F700C0000088E286
:100590000E9477018CE00E94770160E0C0E00AC011
:1005A000D1E0D60F8C2F90E088589F4F0E943602E2
:1005B000C85F6D2FC034A0F3DF91CF910895EF9203
:1005C000FF920F931F93CF93DF9300D000D01F9221
:1005D000CDB7DEB77B01FE01319625E0DF011D922C
:1005E0002A95E9F724E030E00FC06AE070E00E944D
:1005F0003A05E1E0F0E0EC0FFD1FE20FF31F80830E
:10060000862F972F21503109009779F7BFEFEB160E
:10061000FB0681F403C00F5F1F4F02C000E010E033
:10062000E1E0F0E0EC0FFD1FE00FF11F208122233D
:1006300091F304C005E010E00E191F09992384F41A
:100640008DE20E94DF000CC0E1E0F0E0EC0FFD1F46
:10065000E00FF11F8081805D0E94DF000F5F1F4F60
:10066000053011058CF30F900F900F900F900F90A5
:10067000DF91CF911F910F91FF90EF9008950E940D
:1006800060020E94AA030E94CE040E940105FDCFD1
:10069000FC012081253359F42181293351F4228131
:1006A000213349F48381833341F080E0089580E071
:1006B000089580E0089580E0089581E00895FC01A8
:1006C0008081813451F018F48A30F0F00895833439
:1006D00081F048F0843499F0089587E080933401E4
:1006E00010923301089588E0809334011092330111
:1006F000089589E080933401109233010895109297
:10070000340110923301089581E0809334011092F6
:1007100033010895CF9390913301981307C0C62FEA
:100720000E940B0210923301C0933401CF910895BF
:10073000CF93C82F81E391E00E947B00882341F092
:10074000EC2FF0E0E35DFE4F80913101808381E08A
:10075000CF91089510923401109233010895809141
:1007600033018F5F80933301E09134018E2F90E04D
:100770008830910508F011C1FC01EC5CFF4F0C942E
:100780004E0560E084E00E9427020E94340562E08A
:1007900070E090E00E94DF028AE30E94DF000E9486
:1007A000310562E070E090E00E94DF028AE30E947F
:1007B000DF000E942E0562E070E090E00E94DF0200
:1007C00061E085E00E94270267E080E191E00E94FD
:1007D0000F0280E00E949803882309F4DEC0809114
:1007E0002D0190E00E945F0308950E940B0261E0DA
:1007F00085E00E94270280912D010E94DF008091F8
:1008000032018F5F80933201833061F481E00E9476
:100810009803882329F01092330182E080933401F9
:100820001092320160E08EE10E948A03089561E037
:1008300086E00E94270280912E010E94DF008091B5
:1008400032018F5F80933201833061F482E00E9435
:100850009803882329F01092330183E080933401B8
:100860001092320160E08EE10E948A03089561E0F7
:1008700087E00E94270280912F010E94DF00809173
:1008800032018F5F80933201833059F40E949803C4
:10089000882329F01092330184E080933401109270
:1008A000320160E08EE10E948A03089561E088E0F1
:1008B0000E942702809130010E94DF008DE291E0CA
:1008C0000E944803882331F01092330185E0809321
:1008D000340108951092330186E080933401089525
:1008E00061E085E00E94270268E088E191E00E94D3
:1008F0000F0260E084E10E948A03089561E085E0D0
:100900000E94270267E081E291E00E940F0260E00E
:100910008EE10E948A030895809132018F5F809357
:1009200032018330D1F581E391E00E947B0088237E
:10093000A1F1809131018332D1F08134E9F4EBE20D
:10094000F1E090818181990F292F220F220F920FC0
:10095000980F80912A01833029F4983118F4892F57
:100960000E94370510922A011092340111C0109292
:10097000340110922A010CC090ED980F9A3040F487
:10098000E0912A01E23020F4F0E0E55DFE4F808343
:1009900080912A018F5F80932A0108958AB1806433
:1009A0008AB989EF87BD82E484BD85B5846085BD41
:1009B00082E080936E00789408951F920F920FB694
:1009C0000F9211248F93809136018F5F80933601AF
:1009D000893129F481E080933701109236018091AA
:1009E00035018F5F809335018A3F29F481E0809340
:1009F0003801109235018F910F900FBE0F901F900C
:100A0000189580913801882321F00E9412051092D8
:100A1000380180913701882321F00E94AF031092A2
:100A20003701089580913B018F5F80933B018C33A8
:100A3000A0F010923B0180913A018F5F80933A01C0
:100A40008C3358F010923A01809139018F5F809376
:100A50003901883110F010923901089580913B01DD
:100A6000089580913A010895809139010895809305
:100A70003901089597FB072E16F4009407D077FDEF
:100A800009D00E94540507FC05D03EF4909581954D
:100A90009F4F0895709561957F4F0895EE0FFF1F4A
:100AA0000590F491E02D0994AA1BBB1B51E107C0EE
:100AB000AA1FBB1FA617B70710F0A61BB70B881FEE
:100AC000991F5A95A9F780959095BC01CD0108957D
:040AD000F894FFCFC8
:100AD4004131333242343635433739384430232AAE
:100AE4004345525241444F0044454E454741444FCB
:0A0AF400004142494552544F0000F2
:00000001FF
