:100000000C945E000C947B000C947B000C947B00A1
:100010000C947B000C947B000C947B000C947B0074
:100020000C947B000C947B000C947B000C947B0064
:100030000C947B000C947B000C94BA050C947B0010
:100040000C947B000C947B000C947B000C947B0044
:100050000C947B000C947B000C947B000C947B0034
:100060000C947B000C947B00FA033604570476044E
:100070009404BC04AE04CA0416056205001F000007
:1000800000001F00001F101010101F00001F181884
:1000900018181F00001F1C1C1C1C1F00001F1E1E08
:1000A0001E1E1F00001F1F1F1F1F1F0003070F1F03
:1000B0000F070300181C1E1F1E1C180011241FBE52
:1000C000CFEFD8E0DEBFCDBF11E0A0E0B1E0EAE9BC
:1000D000FCE002C005900D92AA32B107D9F721E0E9
:1000E000AAE2B1E001C01D92AC33B207E1F70E9471
:1000F00041030C944B060C9400001F93CF93DF93A5
:1001000000D01F92CDB7DEB7DC0184B1867E84B902
:100110008AB18F778AB985B1896185B98BB18068D9
:100120008BB98AB18C638AB980E1898388E08A833C
:1001300081E08B8310E03BC08BB18C638BB98BB1BA
:10014000612F70E0AB014E5F5F4F21E030E002C0F5
:10015000220F331F4A95E2F7209528232BB990E010
:100160001AC083B1492F50E0E1E0F0E0EC0FFD1F31
:10017000E40FF51F2081282369F4440F551F440F15
:10018000551F40505F4FFA01E60FF71F80818C9397
:1001900081E010C09F5F933020F34F9907C0FB01AF
:1001A000E050FF4F84858C9381E004C01F5F1430C2
:1001B00018F280E00F900F900F90DF91CF911F9178
:1001C000089565B1982F9074492F50E05595479543
:1001D000559547955595479555954795982F9078FE
:1001E000292F30E0022E232F000C221F330B000C8E
:1001F000221F331F962F997F492B242B25B968B1D5
:10020000982F9071492F50E05595479555954795F2
:1002100055954795982F9072292F30E03595279561
:100220003595279535952795962F997F492B242B22
:1002300028B99BB192609BB99BB191609BB925EDA8
:100240002A95F1F700009BB19E7F9BB99BB19D7FE2
:100250009BB995ED9A95F1F7000065B120E1829F79
:10026000C0011124AC01407455275595479555950B
:10027000479555954795559547959C012078332787
:10028000022E232F000C221F330B000C221F331FC2
:10029000362F397F432B242B25B948B19C0120717F
:1002A0003327359527953595279535952795807270
:1002B0009927959587959595879595958795942FE9
:1002C000997F292B822B88B98BB182608BB98BB136
:1002D00081608BB985ED8A95F1F700008BB18E7F37
:1002E0008BB98BB18D7F8BB995ED9A95F1F70000A5
:1002F000089565B1982F9074492F50E05595479512
:10030000559547955595479555954795982F9078CC
:10031000292F30E0022E232F000C221F330B000C5C
:10032000221F331F962F997F492B242B25B968B1A3
:10033000982F9071492F50E05595479555954795C1
:1003400055954795982F9072292F30E03595279530
:100350003595279535952795962F997F492B242BF1
:1003600028B99BB191609BB9EFE9FFE03197F1F7B4
:1003700000C000009BB19E7F9BB9EFE9FFE0319781
:10038000F1F700C0000065B1F0E18F9FC0011124BA
:10039000AC0140745527559547955595479555950A
:1003A0004795559547959C0120783327022E232F9A
:1003B000000C221F330B000C221F331F362F397FF6
:1003C000432B242B25B948B19C0120713327359547
:1003D0002795359527953595279580729927959579
:1003E00087959595879595958795942F997F292B36
:1003F000822B88B98BB181608BB98FE99FE001971F
:10040000F1F700C000008BB18E7F8BB9EFE9FFE000
:100410003197F1F700C00000089581E00E94790152
:1004200008950F931F93CF93DF93009769F0D62F12
:100430008C01C0E007C0F801EC0FF11D80810E9423
:10044000E100CF5FCD17B8F3DF91CF911F910F91EE
:100450000895623031F0633031F0613029F4805C0E
:1004600003C08C5E01C08C5A80680E947901089597
:10047000EF92FF920F931F93CF93DF937C01862F10
:1004800090E0880F991F880F991F880F991F80642B
:10049000C0E0D0E00DC0F701EC0FFD1F149101E0AA
:1004A000080F0E947901812F0E94E1002196802F80
:1004B000C830D10580F3DF91CF911F910F91FF904C
:1004C000EF900895CF93DF938FE59AEE0197F1F7C0
:1004D00000C0000085B1897F85B988B1897F88B95E
:1004E0001BB887B1866087B984B1866084B984B14E
:1004F000866084B987B1866087B98AB183608AB91A
:1005000085B1897F85B988B1866088B98BB18160F2
:100510008BB98FE99FE00197F1F700C000008BB124
:100520008E7F8BB98FE99FE00197F1F700C0000043
:1005300085B1897F85B988B1866088B98BB18160C2
:100540008BB98FE99FE00197F1F700C000008BB1F4
:100550008E7F8BB98FE99FE00197F1F700C0000013
:1005600085B1897F85B988B1897F846088B98BB16D
:1005700081608BB98FE99FE00197F1F700C000001F
:100580008BB18E7F8BB98FE99FE00197F1F700C0A7
:10059000000088E20E9479018CE00E94790160E00D
:1005A000C0E00AC0D1E0D60F8C2F90E084589F4F56
:1005B0000E943802C85F6D2FC034A0F3DF91CF9145
:1005C0000895EF92FF920F931F93CF93DF9300D084
:1005D00000D01F92CDB7DEB77B01FE01319625E03A
:1005E000DF011D922A95E9F724E030E00FC06AE0B0
:1005F00070E00E941D06E1E0F0E0EC0FFD1FE20F4D
:10060000F31F8083862F972F21503109009779F7A8
:10061000BFEFEB16FB0681F403C00F5F1F4F02C054
:1006200000E010E0E1E0F0E0EC0FFD1FE00FF11F53
:100630002081222391F304C005E010E00E191F0968
:10064000992384F48DE20E94E1000CC0E1E0F0E027
:10065000EC0FFD1FE00FF11F8081805D0E94E10023
:100660000F5F1F4F053011058CF30F900F900F9007
:100670000F900F90DF91CF911F910F91FF90EF900E
:1006800008950E9462020E94B9030E94AB050E9475
:10069000DE05FDCFFC012081253359F4218129336A
:1006A00051F42281213349F48381833341F080E086
:1006B000089580E0089580E0089580E0089581E045
:1006C0000895CF9390913301981307C0C62F0E94CD
:1006D0000D0210923301C0933401CF910895FC01B3
:1006E0008081813459F020F480538A3050F108958C
:1006F0008334C1F068F08434F9F0089587E0809382
:10070000340160E084E00E942902109233010895D0
:1007100088E08093340160E087E00E942902109213
:100720003301089589E08093340160E08AE00E94FB
:10073000290210923301089510923401109233016E
:10074000089581E080933401109233010895CF938E
:10075000C82F81E391E00E947D00882341F0EC2FB7
:10076000F0E0E35DFE4F80913101808381E0CF9125
:10077000089510923401109233010E940D0260E03E
:1007800084E00E9429020E940B0662E070E090E083
:100790000E94E1028AE30E94E1000E940E0662E0EC
:1007A00070E090E00E94E1028AE30E94E1000E9472
:1007B000110662E070E090E00E94E10261E085E0F5
:1007C0000E94290267E080E191E00E9411020895F1
:1007D000809133018F5F80933301E09134018E2F3C
:1007E00090E08A30910508F0B5C1FC01EC5CFF4F48
:1007F0000C94310660E084E00E9429020E941106F8
:1008000062E070E090E00E94E1028AE30E94E10071
:100810000E940E0662E070E090E00E94E1028AE32E
:100820000E94E1000E940B0662E070E090E00E94EE
:10083000E10261E085E00E94290267E080E191E049
:100840000E941102809132018F5F809332018330C8
:1008500009F080C180E00E94A703882321F08DE287
:1008600091E00E946F031092320108950E940D02E0
:1008700061E085E00E9429028AE20E94E100809105
:1008800032018F5F80933201833061F481E00E94F6
:10089000A703882329F01092330182E0809334016A
:1008A0001092320160E08EE10E946103089561E0E0
:1008B00086E00E9429028AE20E94E10080913201D2
:1008C0008F5F80933201833061F482E00E94A7033E
:1008D000882329F01092330183E080933401109231
:1008E000320160E08EE10E946103089561E087E0DB
:1008F0000E9429028AE20E94E100809132018F5F0A
:1009000080933201833059F40E94A703882329F091
:100910001092330184E0809334011092320160E040
:100920008EE10E946103089561E088E00E9429023F
:10093000809130010E94E1008DE291E00E944A0323
:10094000882331F01092330185E0809334010895BB
:100950001092330186E080933401089561E085E0D0
:100960000E94290268E088E191E00E94110260E0A3
:1009700084E10E946103089561E085E00E942902FC
:1009800067E081E291E00E94110260E08EE10E9446
:1009900061030895809132018F5F8093320183302B
:1009A00009F0D8C01092320180E00E94A70388238A
:1009B00009F4D0C080912D018A3328F4803328F5C2
:1009C0008332F1F00895813409F0C4C0EBE2F1E024
:1009D000808190E0C0979181880F282F220F220FED
:1009E000820F890F805390912A01923021F488312F
:1009F00010F40E94140610922A01109234010895F6
:100A00001092340110922A010895E0912A01E230F7
:100A100008F0A0C0F0E0E55DFE4F80830E94E10099
:100A200080912A018F5F80932A010895809132017D
:100A30008F5F80933201833009F08CC010923201B5
:100A400080E00E94A703882309F484C080912D01CF
:100A50008A3328F4803328F58332F1F00895823404
:100A600009F078C0EBE2F1E0808190E0C0979181DD
:100A7000880F282F220F220F820F890F8053909109
:100A80002A01923021F48C3310F40E941706109240
:100A90002A011092340108951092340110922A0113
:100AA0000895E0912A01E23008F054C0F0E0E55DDD
:100AB000FE4F80830E94E10080912A018F5F809326
:100AC0002A010895809132018F5F80933201833033
:100AD00009F040C01092320180E00E94A7038823F1
:100AE000C9F180912D018A3328F4803320F58332B7
:100AF000E9F00895833471F5EBE2F1E0808190E054
:100B0000C0979181880F282F220F220F820F890F03
:100B1000805390912A01923021F48C3310F40E947A
:100B20001A0610922A01109234010895109234018D
:100B300010922A010895E0912A01E23058F4F0E081
:100B4000E55DFE4F80830E94E10080912A018F5F66
:100B500080932A0108958AB180648AB989EF87BD9C
:100B600082E484BD85B5846085BD82E080936E009B
:100B7000789408951F920F920FB60F9211248F93BD
:100B8000809136018F5F80933601893129F481E0AD
:100B90008093370110923601809135018F5F8093E9
:100BA00035018A3F29F481E08093380110923501A4
:100BB0008F910F900FBE0F901F9018958091380164
:100BC000882321F00E94EF051092380180913701AF
:100BD000882321F00E94E803109237010895809144
:100BE0003B018F5F80933B018C33A0F010923B015F
:100BF00080913A018F5F80933A018C3358F01092C4
:100C00003A01809139018F5F80933901883110F06A
:100C100010923901089580913B01089580913A0125
:100C20000895809139010895809339010895809342
:100C30003A01089580933B01089597FB072E16F41F
:100C4000009407D077FD09D00E94370607FC05D035
:100C50003EF4909581959F4F0895709561957F4FD3
:100C60000895EE0FFF1F0590F491E02D0994AA1B43
:100C7000BB1B51E107C0AA1FBB1FA617B70710F087
:100C8000A61BB70B881F991F5A95A9F780959095B9
:0A0C9000BC01CD010895F894FFCFD8
:100C9A00413133324234363543373938442A2330E6
:100CAA004345525241444F0044454E454741444F03
:0A0CBA00004142494552544F00002A
:00000001FF
