S00B00005450342E7372656341
S11300000C9434000C9451000C9451000C94510045
S11300100C9451000C9451000C9451000C94510018
S11300200C9451000C9451000C9451000C94510008
S11300300C9451000C9451000C9451000C945100F8
S11300400C9451000C9451000C9498010C94AF0141
S11300500C9451000C9451000C9451000C945100D8
S11300600C9451000C94510011241FBECFEFD8E022
S1130070DEBFCDBF11E0A0E0B1E0E2EEF3E002C0EC
S113008005900D92A630B107D9F721E0A6E0B1E0C2
S113009001C01D92A437B207E1F70E94AB000C9493
S11300A0EF010C940000ECE7F0E080818360808332
S11300B080818064808380818F7D8083EAE7F0E0A3
S11300C0808187608083EEE7F0E0808188608083B0
S11300D087B1877F87B90895EAE7F0E08081806877
S11300E080830895EAE7F0E0808180648083089546
S11300F0809178009091790008951F93CF93DF93B6
S1130100182FEB0160E071E0CE010E94DF01892B22
S113011021F4812F90E00E94730162E071E0CE012E
S11301200E94DF01892B31F4812F90E090938B00A2
S113013080938A0064E071E0CE010E94DF01892B84
S113014031F4812F90E09093890080938800DF91AF
S1130150CF911F910895CF93DF931F92CDB7DEB750
S11301600E942D010E9453000E946C0084B18062A1
S113017084B9789487E60E940B010E9415010E94BD
S113018021010E9427010E94720080917A0084FF5D
S1130190FCCFEAE7F0E08081806180830E947800F0
S11301A09695879596958795809306010E945101AF
S11301B00E947F010E947901019751F580E090E04F
S11301C00E947C010E947601BC01CE0101960E942E
S11301D0E80160E071E0CE0101960E94DF01892B05
S11301E081F062E071E0CE0101960E94DF01892B6B
S11301F041F064E071E0CE0101960E94DF01892B99
S113020039F4BE016F5F7F4F809106010E947D002B
S11302100E947200BACF1092C10096E09093C2007F
S11302201092C5008093C4000895E1ECF0E0808151
S1130230886080830895E1ECF0E0808180628083AF
S11302400895E1ECF0E08081806180830895E1EC21
S1130250F0E08081806880830895E0E8F0E08081A8
S113026081608083A1E8B0E08C9188608C93808168
S1130270806880838081806280838C9183608C938A
S113028084B1846084B984B1826084B98FEF90E0D2
S1130290909389008093880090938B0080938A00C8
S11302A008958091070190910801019690930801A7
S11302B0809307018F3F910540F01092080110923E
S11302C0070185B1806285B908952091090130E064
S11302D08217930720F485B18F7D85B9089585B180
S11302E0806285B9089580930901089580E191E0C1
S11302F0089580910C01089580930C0108958091D4
S11303000E018823A1F060E171E082E491E00E9493
S1130310E80181E080930D010E941B0180910D0191
S11303208111FCCF81E080930C0110920E0108959D
S11303301F920F920FB60F9211248F938091C600D3
S113034080930F0180910F018093100181E08093CD
S11303500E018F910F900FBE0F901F9018951F9252
S11303600F920FB60F9211248F93EF93FF93E091A6
S11303700B01F0E0EE5BFE4F80818093C60080911C
S11303800B018F5F80930B0180910A0181110CC0D6
S113039010920B0110920A0110920D01E1ECF0E0B1
S11303A080818F7D808303C0815080930A01FF91F7
S11303B0EF918F910F900FBE0F901F901895FB0136
S11303C0DC018D91019080190110D9F3990B0895E6
S11303D0FB01DC0101900D920020E1F70895F894EF
S10503E0FFCF49
S10903E252004700420036
S9030000FC
