S00B00005450332E7372656342
S11300000C9434000C9451000C9451000C94510045
S11300100C9451000C9451000C9451000C94510018
S11300200C9451000C9451000C9451000C94510008
S11300300C9451000C9451000C9468030C945100DE
S11300400C9451000C9451000C94F8030C940F047C
S11300500C9451000C9451000C9451000C945100D8
S11300600C9451000C94510011241FBECFEFD8E022
S1130070DEBFCDBF11E0A0E0B1E0E8E9FFE002C0DF
S113008005900D92A23DB107D9F722E0A2EDB1E0AF
S113009001C01D92A437B207E1F70E9436010C9407
S11300A0CA070C94000087B1816087B988B1816068
S11300B088B908950F931F93CF93DF9300D000D096
S11300C01F92CDB7DEB78C0188B18E7F88B92FEF30
S11300D080EE90E0215080409040E1F700C00000A5
S11300E088B1816088B987B18E7F87B920E00FC05D
S11300F0EAE0EA95F1F700C02E5F2D3340F087B1B6
S1130100816087B988B1816088B980E06DC096B19B
S1130110392F317090FDECCF20E00EC0FAE0FA9553
S1130120F1F700C02E5F253638F097B1916097B98A
S113013098B1916098B958C096B1892F817090FF99
S1130140EDCF20E00FC08AE08A95F1F700C02E5F62
S1130150253640F087B1816087B988B1816088B95C
S1130160832F42C096B1892F817090FDECCFB0E00F
S113017024C0309BFECFEAEBEA95F1F700C0309B38
S11301800CC047E050E0491B510921E030E002C0B7
S1130190220F331F4A95E2F7A22B3099FECF9F5FBF
S11301A002C0A0E090E0983020F3E1E0F0E0EC0F32
S11301B0FD1FEB0FF11DA083BF5FB53090F397B126
S11301C0916097B998B1916098B949819A813B81BE
S11301D02C81940F930F920F2D81921305C0FB0174
S11301E04083F801308381E00F900F900F900F90BF
S11301F00F90DF91CF911F910F91089587B1806186
S113020087B987B1806287B988B1806388B9109251
S1130210B90088E48093B80084E08093BC0008951A
S113022084EA8093BC008091BC008823E4F708959D
S11302308093BB0084E88093BC008091BC00882339
S1130240E4F70895811104C084EC8093BC0003C0DA
S113025084E88093BC008091BC008823E4F78091FB
S1130260BB00089584E98093BC0008950E945A035A
S11302700E944B010E9453000E94FE0087E60E94E8
S11302809C030E94A6030E94B2030E94B8037894C0
S11302900E948B03FDCF1092DB010E943A02089565
S11302A00E94D903813031F580E00E94DC030E9472
S11302B0BE03BC018EED91E00E948E0468E171E002
S11302C08EED91E00E948504892B41F06AE171E092
S11302D08EED91E00E948504892B61F48091DB010D
S11302E0811104C081E08093DB010895813011F411
S11302F01092DB0108950E9450018091DB0181116D
S11303004EC06EEE71E08FE092E00E945A0080933E
S1130310EF01882309F43FC08CE191E00E94C103FE
S113032080910F024AE06CED71E090E00E94A3041A
S11303308CED91E00E94C10385E291E00E94C1032B
S113034089E291E00E94C1038091EE014AE060EFEE
S113035071E090E00E94A30480EF91E00E94C10349
S11303608FE291E00E94C10360E072E08FED91E0C2
S11303700E94CE028FED91E00E94C10380E391E0E0
S11303800E94C10380E092E00E94C10382E391E0F5
S11303900E94C103089585E391E00E94C10308957A
S11303A06AE070E00E943F0462957295707F762740
S11303B0607F7627862B972B08959C01359527958A
S11303C0359527953595279535952795A901440F9A
S11303D0551F220F331F220F331F220F331F240FE9
S11303E0351F8F709927820F931F0895EF92FF9204
S11303F00F931F93CF93DF93CDB7DEB768970FB6F4
S1130400F894DEBF0FBECDBF7C0188E1E0E0F1E0EF
S1130410DE01119601900D928A95E1F700E010E05B
S113042017C0F801EE0FFF1F81E090E08C0F9D1FB5
S1130430E80FF91F6081718143E050E0C7010E9419
S11304409504892B19F4C801019607C00F5F1F4F4B
S11304500C30110534F380E090E068960FB6F89400
S1130460DEBF0FBECDBFDF91CF911F910F91FF90E3
S1130470EF9008956F927F928F929F92AF92BF9266
S1130480CF92DF92EF92FF920F931F93CF93DF935C
S1130490CDB7DEB765970FB6F894DEBF0FBECDBFFC
S11304A08CE0E2E9F1E0DE01119601900D928A956B
S11304B0E1F789E0EEE9F1E0DE011D9601900D928D
S11304C08A95E1F7CE010A960E9467044C01CE0199
S11304D001960E94F6015C01CE0105960E94670414
S11304E06C01CE010D960E9467047C01CE014096FA
S11304F00E9467048C01CE0143960E9467043C016C
S1130500C4010E94D001982EC5010E94D001B82ECA
S1130510C6010E94D001D82EC7010E94D001F82E36
S1130520C8010E94D001182FC3010E94D001082FD6
S11305300E94FE000E94100180ED0E94180180E0DC
S11305400E941801802F0E941801812F0E94180117
S11305508F2D0E94180180E00E9418018D2D0E94A9
S113056018018B2D0E941801892D0E9418010E94E8
S1130570320165960FB6F894DEBF0FBECDBFDF9192
S1130580CF911F910F91FF90EF90DF90CF90BF908C
S1130590AF909F908F907F906F900895AF92BF928D
S11305A0CF92DF92EF92FF920F931F93CF93DF933B
S11305B0CDB7DEB727970FB6F894DEBF0FBECDBF19
S11305C0B82EA92ED62EC72E0E94FE000E9410011E
S11305D080ED0E94180180E00E9418010E94100121
S11305E081ED0E94180100E010E00CC080E00E9440
S11305F02201E1E0F0E0EC0FFD1FE00FF11F80832A
S11306000F5F1F4F063011058CF381E00E94220119
S11306108F830E943201E12CF12C10C001E010E024
S11306200C0F1D1F0E0D1F1DF801808190E00E940C
S1130630DD01F8018083FFEFEF1AFF0A87E0E81677
S1130640F10464F32F819E818D811F922F931F9259
S11306509F931F928F9387EA91E09F938F93AF921A
S1130660BF920E94D00429819A818B811F922F937B
S11306701F929F931F928F938DEB91E09F938F9383
S1130680CF92DF920E94D0040FB6F894DEBF0FBE63
S1130690CDBF27960FB6F894DEBF0FBECDBFDF9156
S11306A0CF911F910F91FF90EF90DF90CF90BF906B
S11306B0AF9008958AB180648AB989EF87BD82E4D6
S11306C084BD85B5846085BD82E080936E00089505
S11306D01F920F920FB60F9211242F938F939F9313
S11306E08091D2019091D30101969093D30180938C
S11306F0D201843F914039F481E08093D401109277
S1130700D3011092D2019F918F912F910F900FBE20
S11307100F901F9018950E94DF038091D4018823C5
S113072051F08FE99FE00197F1F700C000000E94AB
S11307307B011092D40108951092C10096E0909329
S1130740C2001092C5008093C4000895E1ECF0E06B
S11307508081886080830895E1ECF0E0808180628C
S113076080830895E1ECF0E08081806180830895C6
S1130770E1ECF0E0808180688083089580E192E07C
S11307800895BC019091D8019111FCCF81E0809330
S1130790D801FB0101900020E9F73197E61BF70B24
S11307A0E093D50182E492E00E948E040E94AC039F
S11307B008958091D70108958093D7010895809179
S11307C0D9018823A1F060E172E082E492E00E9402
S11307D08E0481E08093D8010E94AC038091D801FB
S11307E08111FCCF81E08093D7011092D901089543
S11307F01F920F920FB60F9211248F938091C6000F
S11308008093DA018091DA018093100281E0809371
S1130810D9018F910F900FBE0F901F9018951F92C2
S11308200F920FB60F9211248F93EF93FF93E091E1
S1130830D601F0E0EE5BFD4F80818093C60080918D
S1130840D6018F5F8093D6018091D50181110CC0B0
S11308501092D6011092D5011092D801E1ECF0E08B
S113086080818F7D808303C081508093D501FF9167
S1130870EF918F910F900FBE0F901F90189597FBDB
S1130880072E16F4009407D077FD09D00E94530474
S113089007FC05D03EF4909581959F4F089570957F
S11308A061957F4F0895AA1BBB1B51E107C0AA1F86
S11308B0BB1FA617B70710F0A61BB70B881F991FFD
S11308C05A95A9F780959095BC01CD010895FC0136
S11308D088279927E89421912032E9F3293010F0F0
S11308E02E30C8F32B3241F02D3239F4689404C011
S11308F00E94AE04820F911D219120532A30C0F32F
S11309001EF4909581959F4F0895FB01DC018D9114
S1130910019080190110D9F3990B0895FB01DC01B2
S113092001900D920020E1F70895FB01DC01415094
S1130930504030F08D910190801919F40020B9F7DE
S1130940881B990B0895BB274A3031F4992322F46C
S1130950BDE2909581959F4F0C94B7047AE0979FE0
S1130960902D879F802D910D11240895BB27FB01A5
S11309705527AA27880F991FAA1FA41710F0A41B94
S113098083955051B9F7A05DAA3308F0A95DA193EE
S1130990009779F7B111B1931192CB010C94E90648
S11309A0AEE0B0E0E6EDF4E00C94A1070D891E89F9
S11309B086E08C831A8309838FEF9FE79E838D8360
S11309C0AE01475E5F4F6F89788DCE0101960E941C
S11309D0F204EF81F885E00FF11F10822E96E4E017
S11309E00C94BD07ABE0B0E0E8EFF4E00C9493079F
S11309F06C017B018A01FC0117821682838181FFCD
S1130A00CCC1CE0101963C01F6019381F70193FD1F
S1130A10859193FF81917F01882309F4BAC18532BE
S1130A2039F493FD859193FF81917F01853229F4F7
S1130A30B60190E00E94F906E7CF912C212C312CCD
S1130A40FFE1F315D8F08B3279F038F4803279F085
S1130A508332A1F4232D20611DC08D3261F08033D7
S1130A6069F4232D216016C0832D8260382EE32D76
S1130A70E4603E2E2AC0F32DF8601DC037FC2DC063
S1130A8020ED280F2A3040F08E32B9F436FC81C1B3
S1130A90232D2064322E19C036FE06C08AE0989EAB
S1130AA0200D1124922E11C0EAE02E9E200D112457
S1130AB0222EF32DF0623F2E08C08C3621F4832DB4
S1130AC08068382E02C0883641F4F70193FD859181
S1130AD093FF81917F018111B3CF982F9F7D95540E
S1130AE0933028F40C5F1F4F9FE399830DC0833626
S1130AF031F0833771F0833509F059C021C0F80112
S1130B00808189830E5F1F4F88248394912C530125
S1130B1013C02801F2E04F0E511CF801A080B180EF
S1130B2036FE03C0692D70E002C06FEF7FEFC50190
S1130B300E94DE064C018201F32DFF773F2E16C082
S1130B40280122E0420E511CF801A080B18036FE3B
S1130B5003C0692D70E002C06FEF7FEFC5010E94F2
S1130B60D3064C01F32DF0683F2E820133FC1BC0E9
S1130B70822D90E088169906B0F4B60180E290E0E8
S1130B800E94F9062A94F4CFF50137FC859137FECB
S1130B9081915F01B60190E00E94F90621102A9428
S1130BA021E0821A91088114910471F7E8C0843617
S1130BB011F0893641F5F80137FE07C06081718173
S1130BC0828193810C5F1F4F08C060817181072E61
S1130BD0000C880B990B0E5F1F4FF32DFF763F2EF1
S1130BE097FF09C090958095709561957F4F8F4FC1
S1130BF09F4FF0683F2E2AE030E0A3010E943507A2
S1130C00882E861845C0853731F4232D2F7EB22EC9
S1130C102AE030E025C0932D997FB92E8F36C1F09C
S1130C2018F4883579F0B5C0803719F0883721F089
S1130C30B0C0E92FE061BE2EB4FE0DC0FB2DF46000
S1130C40BF2E09C034FE0AC0292F2660B22E06C06A
S1130C5028E030E005C020E130E002C020E132E0CD
S1130C60F801B7FE07C060817181828193810C5FB6
S1130C701F4F06C06081718180E090E00E5F1F4FBE
S1130C80A3010E943507882E8618FB2DFF773F2E7F
S1130C9036FE0DC0232D2E7FA22E891458F434FE67
S1130CA00BC032FC09C0832D8E7EA82E05C0B82C43
S1130CB0A32C03C0B82C01C0B92CA4FE0FC0FE01A4
S1130CC0E80DF11D8081803321F49A2D997EA92E9F
S1130CD009C0A2FE06C0B394B39404C08A2D8678DA
S1130CE009F0B394A3FC11C0A0FE06C0B21488F4AA
S1130CF0280C922C9B180EC0B21460F4B60180E24A
S1130D0090E00E94F906B394F7CFB21418F42B18AC
S1130D1002C0982C212CA4FE10C0B60180E390E000
S1130D200E94F906A2FE17C0A1FC03C088E790E068
S1130D3002C088E590E0B6010CC08A2D867859F08F
S1130D40A1FE02C08BE201C080E2A7FC8DE2B601E5
S1130D5090E00E94F906891438F4B60180E390E02B
S1130D600E94F9069A94F7CF8A94F301E80DF11DD5
S1130D708081B60190E00E94F9068110F5CF22200F
S1130D8009F442CEB60180E290E00E94F9062A946A
S1130D90F6CFF6018681978102C08FEF9FEF2B96E5
S1130DA0E2E10C94AF07FC01059061507040011022
S1130DB0D8F7809590958E0F9F1F0895FC01615080
S1130DC0704001900110D8F7809590958E0F9F1F69
S1130DD00895DC01FC01672F71917723E1F73297C5
S1130DE004C07C916D9370836291AE17BF07C8F302
S1130DF008950F931F93CF93DF93FB01238121FD6C
S1130E0003C08FEF9FEF2CC022FF16C0468157818D
S1130E10248135814217530744F4A081B1819D0197
S1130E202F5F3F4F318320838C93268137812F5F3F
S1130E303F4F3783268314C08B01EC01FB010084F0
S1130E40F185E02D0995892BE1F6D80116968D914F
S1130E509C911797019617969C938E931697CE01A3
S1130E60DF91CF911F910F910895FA01AA2728309D
S1130E7051F1203181F1E8946F936E7F6E5F7F4F63
S1130E808F4F9F4FAF4FB1E03ED0B4E03CD0670FDF
S1130E90781F891F9A1FA11D680F791F8A1F911D32
S1130EA0A11D6A0F711D811D911DA11D20D009F482
S1130EB068943F912AE0269F11243019305D3193C4
S1130EC0DEF6CF010895462F4770405D4193B3E0AD
S1130ED00FD0C9F7F6CF462F4F70405D4A3318F054
S1130EE0495D31FD4052419302D0A9F7EACFB4E005
S1130EF0A6959795879577956795BA95C9F70097BD
S1130F006105710508959B01AC010A2E069457955D
S1130F10479537952795BA95C9F7620F731F841FB4
S1130F20951FA01D08952F923F924F925F926F924A
S1130F307F928F929F92AF92BF92CF92DF92EF9265
S1130F40FF920F931F93CF93DF93CDB7DEB7CA1BE6
S1130F50DB0B0FB6F894DEBF0FBECDBF09942A8811
S1130F60398848885F846E847D848C849B84AA84B9
S1130F70B984C884DF80EE80FD800C811B81AA8146
S1130F80B981CE0FD11D0FB6F894DEBF0FBECDBF11
S10B0F90ED010895F894FFCF70
S1130F98620166016A016E01720176017A017E01BD
S1130FA8820186018A018E01730053000D0A54459B
S1130FB84D503A2000B043200048554D3A200025B2
S1130FC820000D0A004552524F5220616C206C6576
S1130FD86572206C6F73206461746F732064656C30
S1130FE8207065726966657269636F20444854317C
S1130FF831004A616E00466562004D6172004170BD
S113100872004D6179004A756E004A756C0041752D
S11310186700536570004F6374004E6F7600446533
S113102863004A756E203234203230323400313451
S11310383A32383A33310046454348413A2025305C
S113104832752F253032752F2530327500484F52AE
S1131058413A20253032753A253032753A253032F6
S105106875000D
S9030000FC
